:1000000000100010DF000000D5000000D700000045
:1000100000000000000000000000000000000000E0
:1000200000000000000000000000000000000000D0
:100030000000000000000000D9000000DB0000000C
:10004000DD000000DD00000000000000DD00000019
:10005000DD000000DD0000000000000000000000E6
:10006000DD000000DD0000001D050000DD000000D7
:10007000DD000000DD00000000000000DD000000E9
:100080000000000000000000000000000000000070
:100090000000000000000000000000000000000060
:1000A000DD000000DD000000DD000000DD000000DC
:1000B000DD000000DD000000DD000000DD000000CC
:1000C000100B0000000000100800000008000010E5
:1000D0004C000000FEE7FEE7FEE7FEE7FEE738B56E
:1000E000104B114A93420CD218685C680C331A1FEB
:1000F000116800228A42F4D2155815510432F9E7EA
:1001000008330A4A934208D21868596800228A4282
:10011000F6D2002414500432F9E700F0B3FB00F0EB
:1001200035FCFEE7C0000000CC000000D400000059
:10013000FEE7C04610B500210422041C00F022FC9A
:10014000014B236010BDC04614000010084B186816
:10015000191C0B68834202D91A1A312A06D998420F
:1001600001D8181CF5E7C21A312AFAD87047C046E0
:100170000C00001010B5041CFFF7E8FF0ACC021EAB
:100180009A4203D25C1A0020A2420FD208480C18EF
:10019000E41A01208C4209D2591A00208A4202D363
:1001A0009342404101E09A424041C0B210BDC04676
:1001B000FFFF000038B50D1C041CFFF7C7FF4019F6
:1001C0002560606038BD08B5002000F0F1F801201E
:1001D00000F0F5F808BD70B5061C0D1C00246B1E60
:1001E0009C4206DA305D0021013400F0EFF8E4B201
:1001F000F5E77519013D2878012100F0E7F870BD99
:1002000038B5051C00200C1C00F0D9F81F20054053
:1002100020202843002100F0D9F80121201C00F003
:10022000D5F8012000F0CBF838BD08B5002000F06B
:10023000C6F80121E22000F0C9F8012000F0BFF863
:1002400070210720FFF7DCFF002000F0B1F800204C
:100250000B21FFF7D5FF012000F0AAF808BD000030
:1002600010B51D4C031C21700520191CFFF7C8FF99
:1002700011200021FFF7C4FF21781220FFF7C0FFF3
:1002800013200021FFF7BCFF14200021FFF7B8FF67
:1002900015200021FFF7B4FF16200021FFF7B0FF63
:1002A0000620011CFFF7ACFF00200821FFF7A8FF84
:1002B00001200321FFF7A4FF02200321FFF7A0FF85
:1002C00004204F21FFF79CFF1C200021FFF798FF1F
:1002D000FFF7ABFF10BDC0461000001070B5061C44
:1002E0000020141C0D1C00F06AF81F20064020207E
:1002F0003043002100F06AF8281C211CFFF76BFF37
:10030000012000F05CF870BD10B5041C002000F066
:100310004FF8211C05220B20FFF7E0FF012000F021
:1003200047F810BD10B5041C211C0A200522FFF758
:10033000D5FF1020211C0522FFF7D0FF10BD0000C3
:10034000074B40201A1DD16F0143D1675968054AF8
:100350000A405A6059688022D2000A435A607047A6
:1003600000800440FFFBFFFF0120A02388401B0604
:10037000011C002A01D0882200E08A2292019950B3
:1003800070470000064B074A41211A60064A49425D
:10039000DA60064A1A61E022520099507047C0465E
:1003A00000C000400400FFFFFFFFFF08030DFFFF38
:1003B00008B5021C0E210020FFF7D6FF08BD08B5C6
:1003C000021C07210020FFF7CFFF08BD10B5054C28
:1003D000031C0A1C201C191C00F040FA6069C0B202
:1003E00010BDC0460080054037B5FFF7A9FF962035
:1003F000800100F079FAA02540488024A4012D0650
:1004000000F0A2F806213E48002200F00DFAFFF7A6
:10041000B9FF2B59802213432B512A598023DB012A
:1004200013432B51FFF7CFFE2B59042213432B51BB
:10043000344800F0AFF8344800F0E8F90721022012
:10044000FFF70EFF314C201CFFF76CFF201CFFF75D
:100450005BFF2F48FFF76EFE2E4800F0D7F9022110
:1004600001220020FFF780FFFA20400000F092F800
:100470000020021C0221FFF777FFFA20400000F065
:1004800089F8022101220020FFF76EFFFA204000C8
:1004900000F080F80020021C0221FFF765FFFA201F
:1004A000400000F077F8022101220020FFF75CFFF6
:1004B000FA20400000F06EF80020021C0221FFF735
:1004C00053FFFA20400000F065F800241248009421
:1004D000019400F09BF9FA2168464900FFF76AFE93
:1004E0006846FFF747FE0028FAD001235C40002051
:1004F0000221221CFFF738FFEDE7C04630750000EF
:1005000000800540B80B0000380A00000000001011
:10051000500000103A0A00003C0A0000074B01227C
:10052000D968114208D0DA60054B1A6801321A60A6
:10053000044B1A6801321A607047C0460040004000
:100540000C000010080000100E4B10B5191DCC6FE8
:100550008022D2001443CC675C6880218C435C60AD
:100560005C6821435960084B00211960074B8021CA
:100570001860186809060143196001219960044B4D
:100580001A6010BD008004400800001000400040C8
:1005900000E100E0034B00221A601A688242FCD39B
:1005A0007047C0460800001008B500F0E3F908BD28
:1005B00008B5002805D0036819700268013202608E
:1005C00002E0081CFFF7F0FF08BDF7B5141C00900F
:1005D0000191002A0FDD0A1C0199501A1178002997
:1005E00001D00132F8E7A04201DA241A00E00C1C25
:1005F00030279A0700D420270025D9070CD4251CC2
:10060000002D05DD0098391CFFF7D2FF013DF7E70B
:10061000E543ED172540641B2E1C019A531B995D81
:10062000002904D00098FFF7C3FF0136F5E7251C29
:10063000002D05DD0098391CFFF7BAFF013DF7E7F3
:10064000E043C01704403019FEBDF0B587B0071C69
:1006500000920C1E09D103AB30221A7059700C9A0B
:10066000191C0D9BFFF7B1FF42E00022019293425B
:1006700007D0009B0A2B04D1914202DA01224C429E
:10068000019200226B466E46DA751636751C002CF8
:1006900011D0201C009900F080F9092902DD0E9B81
:1006A0003A3BC91830313170201C009900F075F9BF
:1006B000013E041CEAE7019B002B12D00C9A002A91
:1006C0000BD00D9B9B0708D5381C2D21FFF770FF21
:1006D0000C9A0124013A0C9203E0013D2D232B706A
:1006E0000024381C291C0C9A0D9BFFF76EFF201864
:1006F00007B0F0BDF0B589B0061C0D1C05920024B2
:100700002B78002B05D0252B73D169786A1C002922
:1007100005D1002E74D0336800221A7070E02529AC
:1007200066D000232D2901D1AA1C0123151C2A788B
:10073000302A03D1022201351343F8E70022297839
:10074000081C3038C7B2092F04D80A214A430135A2
:100750001218F4E7732907D10599081D0968059057
:10076000002941D128493FE064290ED10599081D8F
:10077000096801936123059000920293301C0A22BC
:100780000123FFF762FF241838E0782907D1059983
:10079000081D0590096801930092612308E058291B
:1007A0000AD10599081D059009680193009241231B
:1007B0000293301C10220BE075290BD10599081DFE
:1007C000096801936123059000920293301C0A226C
:1007D0000023D6E7632911D10598011D0068059112
:1007E00007A9087000204870301CFFF7EEFECAE72A
:1007F000151C2978301CFFF7DBFE013401357FE73B
:10080000201C09B0F0BDC046080B00000FB407B5AE
:1008100004AA08CA0020191C0192FFF76BFF03B05D
:1008200008BC04B0184700000B4B70B51C1DE66FE8
:1008300080252D013543E5675D680124A5435D6092
:100840005D6825435D600423416242600360036884
:100850001C43046070BDC04600800440052310B5F1
:10086000036083689C07FCD5E223012A00D0E023C3
:10087000DB04194381618368DA07FCD54069C0B2A3
:1008800010BD0000144A1548D16F154B014310B537
:10089000D16700221A6401225A64596C104AC807B1
:1008A000FBD5242191608E21890050588024A043DB
:1008B0005050D86801210A4A0842FAD00320106734
:1008C00051675A6FD107FCD5054B02229A67054B39
:1008D00000221A6110BDC04604800440800004005C
:1008E0000080044000000440F7B51E4C1E4F231C3E
:1008F00094330122009008261A603B1DDE67231DF9
:10090000D96F8022D2010A43DA676368174DB34377
:100910006360636800993343636004232B60144869
:1009200000F03BF8231CF033FF22013828621A60E4
:100930001868296A1B680130DB4301930C4B0131B5
:100940005843009BF434594300F027F8019A82235E
:1009500010181B012060AB603E602B68012213431E
:100960002B60F7BD0080044000E100E0004006403D
:1009700070383900024B9A685107FBD5D86170472F
:100980000040064008B500F042F808BD08B5FFF782
:100990002BFD08BD03000B4321D4002931D00122D7
:1009A000D207030901E0090112099942FBD9430862
:1009B00001E0490052089942FBD900E04908401A79
:1009C00007D35241FAD301461046704749084018F0
:1009D000F7D29218FAD34018014610467047CB0F51
:1009E00000D04942021000D54042534008B5FFF7FD
:1009F000D4FF0CBC521000D34042002A00D549421B
:100A00001847F446002000F001F86047704784461C
:100A1000043A09D3830707D109060B0A19430B0CC3
:100A20001943043A02C0FCD2043203D001700130F1
:100A3000013AFBD16046704749005300444F474597
:100A4000206E6F6465206F6E6C696E650052465F44
:100A500043483A2025640A0D0052585F50575F50B2
:100A6000303A2025640A0D0052585F50575F5031CC
:100A70003A2025640A0D0052585F50575F50323AB1
:100A80002025640A0D0052585F50575F50333A20BA
:100A900025640A0D0052585F50575F50343A2025A4
:100AA000640A0D0052585F50575F50353A20256454
:100AB0000A0D0052465F53455455503A2025640AAA
:100AC0000D00434F4E4649473A2025640A0D004524
:100AD0004E5F41413A2025640A0D00454E5F525851
:100AE000414444523A2025640A0D00534554555060
:100AF0005F524554523A2025640A0D0044594E5025
:100B0000443A2025640A0D00286E756C6C2900FF9C
:080B1000D7D7D7D7D7FFFFFFAD
:04000003000000DF1A
:00000001FF
