:1000000000100010DF000000D5000000D700000045
:1000100000000000000000000000000000000000E0
:1000200000000000000000000000000000000000D0
:100030000000000000000000D9000000DB0000000C
:10004000DD000000DD00000000000000DD00000019
:10005000DD000000DD0000000000000000000000E6
:10006000DD000000DD00000009060000DD000000EA
:10007000DD000000DD00000000000000DD000000E9
:100080000000000000000000000000000000000070
:100090000000000000000000000000000000000060
:1000A000DD000000DD000000DD000000DD000000DC
:1000B000DD000000DD000000DD000000DD000000CC
:1000C000F80B0000000000100C0000000C000010F5
:1000D00048000000FEE7FEE7FEE7FEE7FEE738B572
:1000E000104B114A93420CD218685C680C331A1FEB
:1000F000116800228A42F4D2155815510432F9E7EA
:1001000008330A4A934208D21868596800228A4282
:10011000F6D2002414500432F9E700F023FC00F07A
:10012000A5FCFEE7C0000000CC000000D4000000E9
:10013000FEE7C04610B500210422041C00F092FC2A
:10014000014B236010BDC0461400001008B500200C
:1001500000F08AF9012000F08EF908BD10B50020EA
:1001600000F089F90121FF2000F08CF9041C012026
:1001700000F081F9201C10BD08B5FFF7EFFF302318
:10018000184043425841C0B208BDF7B5051C0E1CCB
:1001900001920024019B013B9C4208DA285D00216A
:1001A00000F070F9371901343870E4B2F2E7E85C16
:1001B0000121F61800F066F93070F7BD70B5061C25
:1001C0000D1C00246B1E9C4206DA305D00210134B8
:1001D00000F058F9E4B2F5E77519013D28780121DE
:1001E00000F050F970BD38B5051C00200C1C00F063
:1001F00042F91F20054020202843002100F042F949
:100200000121201C00F03EF9012000F034F938BD36
:1002100008B5002000F02FF90121E22000F032F9AA
:10022000012000F028F970210720FFF7DCFF0020F3
:1002300000F01AF900200B21FFF7D5FF012000F094
:1002400013F908BD10B51D4C031C21700520191CA5
:10025000FFF7C9FF11200021FFF7C5FF2178122009
:10026000FFF7C1FF13200021FFF7BDFF142000217D
:10027000FFF7B9FF15200021FFF7B5FF1620002179
:10028000FFF7B1FF0620011CFFF7ADFF002008219A
:10029000FFF7A9FF01200321FFF7A5FF022003219B
:1002A000FFF7A1FF04204F21FFF79DFF1C20002135
:1002B000FFF799FFFFF7ACFF10BDC046100000101C
:1002C00008B507207021FFF78EFF00200A21FFF7F5
:1002D0008AFF08BD10B5041C002000F0C5F8FFF728
:1002E000EFFF002000F0C7F80121E12000F0CAF87C
:1002F000012000F0C0F8002000F0BDF80021A0208F
:1003000000F0C0F8054B201C1978FFF757FF0120BB
:1003100000F0B1F8012000F0A7F810BD10000010A7
:1003200070B5061C00200C1C151C00F0A4F81F2042
:100330003040002100F0A6F82A1C201C211CFFF7E9
:1003400024FF012000F097F870BD13B56C46073408
:100350001720211C0122FFF7E3FF2078012318401A
:1003600016BD08B5FFF7FAFE031C01205A0604D497
:10037000FFF7EBFF43425841C0B208BD13B56C46CE
:1003800007340820211C0122FFF7CAFF20780F2321
:10039000184016BD70B5061C0020141C0D1C00F082
:1003A0006AF81F20064020203043002100F06AF840
:1003B000281C211CFFF702FF012000F05CF870BD33
:1003C00010B5041C002000F04FF8211C05220B2062
:1003D000FFF7E0FF012000F047F810BD10B5041C46
:1003E000211C0A200522FFF7D5FF1020211C052221
:1003F000FFF7D0FF10BD0000074B40201A1DD16F42
:100400000143D1675968054A0A405A6059688022F9
:10041000D2000A435A60704700800440FFFBFFFF90
:100420000120A02388401B06011C002A01D088223D
:1004300000E08A229201995070470000064B074A5B
:1004400041211A60064A4942DA60064A1A61E022EE
:10045000520099507047C04600C000400400FFFFA2
:10046000FFFFFF08030DFFFF08B5021C0E2100204F
:10047000FFF7D6FF08BD08B5021C07210020FFF7D3
:10048000CFFF08BD10B5054C031C0A1C201C191C0D
:1004900000F054FA6069C0B210BDC046008005404B
:1004A00038B5FFF7A9FF9620800100F08DFAA0254E
:1004B0004B4880242D06A40100F0B6F806214948D7
:1004C000002200F021FAFFF7B9FF2B5980221343D5
:1004D0002B512A598023DB0113432B51FFF736FEA2
:1004E0002B59042213432B513F4800F0C3F83F48D7
:1004F00000F0FCF907210220FFF7A4FE3C4C002588
:10050000201CFFF76BFF201CFFF75AFF3948FFF74D
:1005100011FE394800F0EAF9022101220020FFF71C
:100520007FFFFA20400000F0A5F80020021C022105
:10053000FFF776FFFA20400000F09CF8022101222C
:100540000020FFF76DFFFA20400000F093F8002034
:10055000021C0221FFF764FFFA20400000F08AF835
:10056000022101220020FFF75BFFFA20400000F08B
:1005700081F80020021C0221FFF752FFFA20400000
:1005800000F078F81D4800F0B1F9FFF7EAFE002806
:10059000FBD001246540002002212A1CFFF740FF08
:1005A000201C00F067F8164C201CFFF793FEFFF7A5
:1005B000E3FD0028FBD1FFF72BFE237801332370E6
:1005C000A3790133A371FFF7D9FE011E02D00D48B4
:1005D00000F08CF9FA20800000F04CF8D5E7C04616
:1005E0003075000000800540B80B0000180B0000BB
:1005F00007000010500000101A0B00001C0B000038
:10060000000000102D0B0000054B0122D96811429B
:1006100004D0DA60034B1A6801321A607047C04692
:10062000004000400C0000100E4B10B5191DCC6F9F
:100630008022D2001443CC675C6880218C435C60CC
:100640005C6821435960084B00211960074B8021E9
:100650001860186809060143196001219960044B6C
:100660001A6010BD008004400C00001000400040E3
:1006700000E100E0034B00221A601A688242FCD3BA
:100680007047C0460C00001008B500F0E3F908BD43
:1006900008B5002805D003681970026801320260AD
:1006A00002E0081CFFF7F0FF08BDF7B5141C00902E
:1006B0000191002A0FDD0A1C0199501A11780029B6
:1006C00001D00132F8E7A04201DA241A00E00C1C44
:1006D00030279A0700D420270025D9070CD4251CE1
:1006E000002D05DD0098391CFFF7D2FF013DF7E72B
:1006F000E543ED172540641B2E1C019A531B995DA1
:10070000002904D00098FFF7C3FF0136F5E7251C48
:10071000002D05DD0098391CFFF7BAFF013DF7E712
:10072000E043C01704403019FEBDF0B587B0071C88
:1007300000920C1E09D103AB30221A7059700C9A2A
:10074000191C0D9BFFF7B1FF42E00022019293427A
:1007500007D0009B0A2B04D1914202DA01224C42BD
:10076000019200226B466E46DA751636751C002C17
:1007700011D0201C009900F080F9092902DD0E9BA0
:100780003A3BC91830313170201C009900F075F9DE
:10079000013E041CEAE7019B002B12D00C9A002AB0
:1007A0000BD00D9B9B0708D5381C2D21FFF770FF40
:1007B0000C9A0124013A0C9203E0013D2D232B7089
:1007C0000024381C291C0C9A0D9BFFF76EFF201883
:1007D00007B0F0BDF0B589B0061C0D1C05920024D1
:1007E0002B78002B05D0252B73D169786A1C002942
:1007F00005D1002E74D0336800221A7070E02529CC
:1008000066D000232D2901D1AA1C0123151C2A78AA
:10081000302A03D1022201351343F8E70022297858
:10082000081C3038C7B2092F04D80A214A430135C1
:100830001218F4E7732907D10599081D0968059076
:10084000002941D128493FE064290ED10599081DAE
:10085000096801936123059000920293301C0A22DB
:100860000123FFF762FF241838E0782907D10599A2
:10087000081D0590096801930092612308E058293A
:100880000AD10599081D059009680193009241233A
:100890000293301C10220BE075290BD10599081D1D
:1008A000096801936123059000920293301C0A228B
:1008B0000023D6E7632911D10598011D0068059131
:1008C00007A9087000204870301CFFF7EEFECAE749
:1008D000151C2978301CFFF7DBFE013401357FE75A
:1008E000201C09B0F0BDC046F10B00000FB407B5E5
:1008F00004AA08CA0020191C0192FFF76BFF03B07D
:1009000008BC04B0184700000B4B70B51C1DE66F07
:1009100080252D013543E5675D680124A5435D60B1
:100920005D6825435D6004234162426003600368A3
:100930001C43046070BDC04600800440052310B510
:10094000036083689C07FCD5E223012A00D0E023E2
:10095000DB04194381618368DA07FCD54069C0B2C2
:1009600010BD0000144A1548D16F154B014310B556
:10097000D16700221A6401225A64596C104AC807D0
:10098000FBD5242191608E21890050588024A043FA
:100990005050D86801210A4A0842FAD00320106753
:1009A00051675A6FD107FCD5054B02229A67054B58
:1009B00000221A6110BDC04604800440800004007B
:1009C0000080044000000440F7B51E4C1E4F231C5D
:1009D00094330122009008261A603B1DDE67231D18
:1009E000D96F8022D2010A43DA676368174DB34397
:1009F0006360636800993343636004232B60144889
:100A000000F03BF8231CF033FF22013828621A6003
:100A10001868296A1B680130DB4301930C4B0131D4
:100A20005843009BF434594300F027F8019A82237D
:100A300010181B012060AB603E602B68012213433D
:100A40002B60F7BD0080044000E100E0004006405C
:100A500070383900024B9A685107FBD5D86170474E
:100A60000040064008B500F042F808BD08B5FFF7A1
:100A700017FD08BD03000B4321D4002931D001220A
:100A8000D207030901E0090112099942FBD9430881
:100A900001E0490052089942FBD900E04908401A98
:100AA00007D35241FAD3014610467047490840180F
:100AB000F7D29218FAD34018014610467047CB0F70
:100AC00000D04942021000D54042534008B5FFF71C
:100AD000D4FF0CBC521000D34042002A00D549423A
:100AE0001847F446002000F001F86047704784463C
:100AF000043A09D3830707D109060B0A19430B0CE3
:100B00001943043A02C0FCD2043203D00170013010
:100B1000013AFBD16046704749005300444F4745B6
:100B2000206E6F6465206F6E6C696E650052543A7A
:100B30002025640A0D0052465F43483A2025640A86
:100B40000D0052585F50575F50303A2025640A0D0F
:100B50000052585F50575F50313A2025640A0D000B
:100B600052585F50575F50323A2025640A0D0052A8
:100B7000585F50575F50333A2025640A0D00525891
:100B80005F50575F50343A2025640A0D0052585F79
:100B900050575F50353A2025640A0D0052465F5386
:100BA000455455503A2025640A0D00434F4E46499E
:100BB000473A2025640A0D00454E5F41413A202501
:100BC000640A0D00454E5F5258414444523A202574
:100BD000640A0D0053455455505F524554523A2013
:100BE00025640A0D0044594E50443A2025640A0DEC
:080BF00000286E756C6C2900F1
:0C0BF8005F606162636465D7D7D7D7D710
:04000003000000DF1A
:00000001FF
